:100000000C9434000C9449000C9449000C94490061
:100010000C9449000C9449000C9449000C9449003C
:100020000C9449000C9449000C9449000C9449002C
:100030000C9449000C9449000C9449000C9449001C
:100040000C9449000C9449000C9449000C9449000C
:100050000C9449000C9449000C9449000C944900FC
:100060000C9449000C94490011241FBECFEFD8E036
:10007000DEBFCDBF11E0A0E0B1E0E6E3F1E002C0F9
:1000800005900D92A230B107D9F70E9482000C941E
:1000900099000C9400004A9934C02FEF80E792E059
:1000A000215080409040E1F700C0000080910001A5
:1000B0008F5F80930001863018F081E0809300010B
:1000C00084B5806884BD80910001833051F018F4BC
:1000D000823099F004C0843031F0853031F080E412
:1000E0000DC080EC0BC08FEF09C084B58F7784BD45
:1000F0008BB18F7B8BB980E001C080E887BD4A9BC4
:10010000FECF08958AB180648AB98AB18B7F8AB99B
:100110008BB184608BB984B5806884BD85B58360FC
:1001200085BD84B5836084BD80E487BD0E944B009B
:06013000FDCFF894FFCFA3
:020136000100C6
:00000001FF
