:100000000C9434000C9451000C9451000C94510049
:100010000C9451000C9451000C9451000C9451001C
:100020000C9451000C9451000C9451000C9451000C
:100030000C9451000C9451000C9451000C945100FC
:100040000C9451000C9451000C9451000C945100EC
:100050000C9451000C9451000C9451000C945100DC
:100060000C9451000C94510011241FBECFEFD8E026
:10007000DEBFCDBF11E0A0E0B1E0ECE4F9E002C0EA
:1000800005900D92A630B107D9F721E0A6E0B1E0C6
:1000900001C01D92AA30B207E1F70E94A5010C949D
:1000A000A4040C94000085B1886085B985E08A9528
:1000B000F1F7000085B1877F85B987EC90E0019763
:1000C000F1F700C0000008959BB1937C9BB983FFBA
:1000D00003C09BB194609BB982FF03C09BB1986041
:1000E0009BB981FF03C09BB190619BB980FF03C0A6
:1000F0008BB180628BB90E9453000895CF93C82FB3
:10010000613021F485B1806185B903C085B18F7EEE
:1001100085B98C2F82958F700E9464008C2F8F7010
:100120000E946400CF910895CF93C82F60E00E9491
:100130007E00C150C23030F48FE39FE10197F1F7A8
:1001400000C00000CF91089561E00E947E000895F4
:10015000882311F090E401C090E0862F8F70890F02
:1001600080680E9494000895CF93DF93EC0103C050
:1001700021960E94A40088818111FACFDF91CF914E
:10018000089581E00E949400089584B1806184B94B
:1001900084B1886084B98AB18C638AB92FEF89EF02
:1001A00090E0215080409040E1F700C0000085B110
:1001B0008F7E85B985B1877F85B983E00E94640011
:1001C0008FE19EE40197F1F700C0000083E00E94F8
:1001D000640087E592E00197F1F700C0000083E03A
:1001E0000E94640087E592E00197F1F700C00000EB
:1001F00082E00E94640087E592E00197F1F700C079
:10020000000088E20E94940088E00E94940081E04F
:100210000E94940086E00E9494008CE00E9494006A
:100220000895EF92FF920F931F93CF93DF93CDB773
:10023000DEB72B970FB6F894DEBF0FBECDBF162FDB
:10024000072FF82EE92E0E94C10060E080E00E9496
:10025000A800EF92FF920F931F9380E091E09F938D
:100260008F938E010F5F1F4F1F930F930E94BA0150
:10027000C8010E94B4000FB6F894DEBF0FBECDBF18
:100280002B960FB6F894DEBF0FBECDBFDF91CF9196
:100290001F910F91FF90EF9008954A9955C02FEF4D
:1002A00089EF90E0215080409040E1F700C00000CD
:1002B0004A9B1CC00895EFE3FCE93197F1F700C0B9
:1002C00000000A96803DF7E09F0790F0109206012B
:1002D00010920701109208011092090160E070E08D
:1002E000CB010E9411014A9BFECF089580E090E06F
:1002F0004A9BE1CF8091060190910701A0910801EE
:10030000B09109010196A11DB11D80930601909342
:100310000701A0930801B093090181159A4CAA49DD
:10032000BB4340F0109206011092070110920801A1
:1003300010920901609106017091070180910801F6
:10034000909109010E94110108958AB18B7F8AB9A9
:100350008BB184608BB90E94C500609106017091D9
:10036000070180910801909109010E9411010E94EA
:100370004D01FDCFAEE0B0E0E0ECF1E00C947B0489
:100380000D891E8986E08C831A8309838FEF9FE78E
:100390009E838D83AE01475E5F4F6F89788DCE015E
:1003A00001960E94DC01EF81F885E00FF11F1082B9
:1003B0002E96E4E00C949704ABE0B0E0E2EEF1E0BE
:1003C0000C946D046C017B018A01FC01178216827A
:1003D000838181FFCCC1CE0101963C01F60193815E
:1003E000F70193FD859193FF81917F01882309F4A3
:1003F000BAC1853239F493FD859193FF81917F01D4
:10040000853229F4B60190E00E94D303E7CF912C06
:10041000212C312CFFE1F315D8F08B3279F038F430
:10042000803279F08332A1F4232D20611DC08D32FA
:1004300061F0803369F4232D216016C0832D826022
:10044000382EE32DE4603E2E2AC0F32DF8601DC047
:1004500037FC2DC020ED280F2A3040F08E32B9F441
:1004600036FC81C1232D2064322E19C036FE06C011
:100470008AE0989E200D1124922E11C0EAE02E9E53
:10048000200D1124222EF32DF0623F2E08C08C3651
:1004900021F4832D8068382E02C0883641F4F7019C
:1004A00093FD859193FF81917F018111B3CF982FA7
:1004B0009F7D9554933028F40C5F1F4F9FE39983E1
:1004C0000DC0833631F0833771F0833509F059C0A0
:1004D00021C0F801808189830E5F1F4F8824839497
:1004E000912C530113C02801F2E04F0E511CF8016A
:1004F000A080B18036FE03C0692D70E002C06FEFAE
:100500007FEFC5010E94C8034C018201F32DFF77E4
:100510003F2E16C0280122E0420E511CF801A08097
:10052000B18036FE03C0692D70E002C06FEF7FEF2F
:10053000C5010E94BD034C01F32DF0683F2E8201DE
:1005400033FC1BC0822D90E088169906B0F4B601EA
:1005500080E290E00E94D3032A94F4CFF50137FCA7
:10056000859137FE81915F01B60190E00E94D3032F
:1005700021102A9421E0821A91088114910471F7C4
:10058000E8C0843611F0893641F5F80137FE07C01E
:1005900060817181828193810C5F1F4F08C06081EF
:1005A0007181072E000C880B990B0E5F1F4FF32DE6
:1005B000FF763F2E97FF09C09095809570956195C5
:1005C0007F4F8F4F9F4FF0683F2E2AE030E0A3010E
:1005D0000E940F04882E861845C0853731F4232DDC
:1005E0002F7EB22E2AE030E025C0932D997FB92EC0
:1005F0008F36C1F018F4883579F0B5C0803719F01E
:10060000883721F0B0C0E92FE061BE2EB4FE0DC0E6
:10061000FB2DF460BF2E09C034FE0AC0292F2660CE
:10062000B22E06C028E030E005C020E130E002C074
:1006300020E132E0F801B7FE07C06081718182815C
:1006400093810C5F1F4F06C06081718180E090E054
:100650000E5F1F4FA3010E940F04882E8618FB2DEA
:10066000FF773F2E36FE0DC0232D2E7FA22E89143C
:1006700058F434FE0BC032FC09C0832D8E7EA82EA8
:1006800005C0B82CA32C03C0B82C01C0B92CA4FE03
:100690000FC0FE01E80DF11D8081803321F49A2DF9
:1006A000997EA92E09C0A2FE06C0B394B39404C0DB
:1006B0008A2D867809F0B394A3FC11C0A0FE06C071
:1006C000B21488F4280C922C9B180EC0B21460F45B
:1006D000B60180E290E00E94D303B394F7CFB21446
:1006E00018F42B1802C0982C212CA4FE10C0B601BF
:1006F00080E390E00E94D303A2FE17C0A1FC03C0D8
:1007000088E790E002C088E590E0B6010CC08A2D31
:10071000867859F0A1FE02C08BE201C080E2A7FCFE
:100720008DE2B60190E00E94D303891438F4B6013B
:1007300080E390E00E94D3039A94F7CF8A94F30168
:10074000E80DF11D8081B60190E00E94D303811075
:10075000F5CF222009F442CEB60180E290E00E945B
:10076000D3032A94F6CFF6018681978102C08FEFDA
:100770009FEF2B96E2E10C948904FC0105906150F7
:1007800070400110D8F7809590958E0F9F1F0895A7
:10079000FC016150704001900110D8F78095909550
:1007A0008E0F9F1F08950F931F93CF93DF93FB012D
:1007B000238121FD03C08FEF9FEF2CC022FF16C0C5
:1007C00046815781248135814217530744F4A08123
:1007D000B1819D012F5F3F4F318320838C93268110
:1007E00037812F5F3F4F3783268314C08B01EC0185
:1007F000FB010084F185E02D0995892BE1F6D801F4
:1008000016968D919C911797019617969C938E93AF
:100810001697CE01DF91CF911F910F910895FA01A4
:10082000AA27283051F1203181F1E8946F936E7F2F
:100830006E5F7F4F8F4F9F4FAF4FB1E03ED0B4E020
:100840003CD0670F781F891F9A1FA11D680F791F61
:100850008A1F911DA11D6A0F711D811D911DA11D72
:1008600020D009F468943F912AE0269F1124301982
:10087000305D3193DEF6CF010895462F4770405D1D
:100880004193B3E00FD0C9F7F6CF462F4F70405DCC
:100890004A3318F0495D31FD4052419302D0A9F727
:1008A000EACFB4E0A6959795879577956795BA9521
:1008B000C9F700976105710508959B01AC010A2EE7
:1008C00006945795479537952795BA95C9F7620FBE
:1008D000731F841F951FA01D08952F923F924F9262
:1008E0005F926F927F928F929F92AF92BF92CF92C0
:1008F000DF92EF92FF920F931F93CF93DF93CDB7C9
:10090000DEB7CA1BDB0B0FB6F894DEBF0FBECDBF40
:1009100009942A88398848885F846E847D848C8411
:100920009B84AA84B984C884DF80EE80FD800C811A
:100930001B81AA81B981CE0FD11D0FB6F894DEBFFD
:0C0940000FBECDBFED010895F894FFCF6D
:06094C002530396C750036
:00000001FF
