S02000004C43445F427574746F6E5F50726573735F50726F6772616D2E73726563B3
S11300000C9434000C943E000C943E000C943E007E
S11300100C943E000C943E000C943E000C943E0064
S11300200C943E000C943E000C943E000C943E0054
S11300300C943E000C943E000C943E000C943E0044
S11300400C943E000C943E000C943E000C943E0034
S11300500C943E000C943E000C943E000C943E0024
S11300600C943E000C943E0011241FBECFEFD8E048
S1130070DEBFCDBF0E94DD000C94E6000C940000AE
S113008085B1886085B985E08A95F1F7000085B16E
S1130090877F85B987EC90E00197F1F700C00000F5
S11300A008959BB1937C9BB983FF03C09BB194607B
S11300B09BB982FF03C09BB198609BB981FF03C0C9
S11300C09BB190619BB980FF03C08BB180628BB9F7
S11300D00E9440000895CF93C82F613021F485B168
S11300E0806185B903C085B18F7E85B98C2F8295D7
S11300F08F700E9451008C2F8F700E945100CF91FD
S11301000895CF93C82F60E00E946B00C150C230A5
S113011030F48FE39FE10197F1F700C00000CF9125
S1130120089584B1806184B984B1886084B98AB146
S11301308C638AB92FEF89EF90E021508040904082
S1130140E1F700C0000085B18F7E85B985B1877F56
S113015085B983E00E9451008FE19EE40197F1F795
S113016000C0000083E00E94510087E592E00197FF
S1130170F1F700C0000083E00E94510087E592E09F
S11301800197F1F700C0000082E00E94510087E56A
S113019092E00197F1F700C0000088E20E9481001C
S11301A088E00E94810081E00E94810086E00E9434
S11301B081008CE00E94810008958AB18B7F8AB906
S11301C08BB184608BB90E949100FFCFF894FFCF6C
S9030000FC
