S01B00004C45445F547261696E5F616E696D6174696F6E2E73726563B8
S11300000C9434000C943E000C943E000C943E007E
S11300100C943E000C943E000C943E000C943E0064
S11300200C943E000C943E000C943E000C943E0054
S11300300C943E000C943E000C943E000C943E0044
S11300400C943E000C943E000C943E000C943E0034
S11300500C943E000C943E000C943E000C943E0024
S11300600C943E000C943E0011241FBECFEFD8E048
S1130070DEBFCDBF0E9440000C94E6000C9400004B
S113008084B1816084B984B1826084B984B18460AC
S113009084B984B1886084B984B1806184B984B13D
S11300A0806284B984B1806484B984B1806884B97D
S11300B085B18D7F85B985B1816085B92FEF83ECDA
S11300C099E0215080409040E1F700C0000085B1E4
S11300D08E7F85B985B18B7F85B985B1826085B9FD
S11300E02FEF83EC99E0215080409040E1F700C06D
S11300F0000085B18D7F85B985B1877F85B985B1CC
S1130100846085B92FEF83EC99E0215080409040C2
S1130110E1F700C0000085B18B7F85B985B18F7E82
S113012085B985B1886085B92FEF83EC99E02150BA
S113013080409040E1F700C0000085B1877F85B919
S113014085B18F7D85B985B1806185B92FEF83EC49
S113015099E0215080409040E1F700C0000085B153
S11301608F7E85B98BB18F7B8BB985B1806285B960
S11301702FEF83EC99E0215080409040E1F700C0DC
S1130180000085B18F7D85B98BB18F778BB98BB129
S113019080648BB92FEF83EC99E02150804090402C
S11301A0E1F700C000008BB18F7B8BB98BB1806805
S11301B08BB92FEF83EC99E0215080409040E1F718
S11301C000C000008BB18F778BB972CFF894FFCF4A
S9030000FC
