:100000000C9434000C943E000C943E000C943E0082
:100010000C943E000C943E000C943E000C943E0068
:100020000C943E000C943E000C943E000C943E0058
:100030000C943E000C943E000C943E000C943E0048
:100040000C943E000C943E000C943E000C943E0038
:100050000C943E000C943E000C943E000C943E0028
:100060000C943E000C943E0011241FBECFEFD8E04C
:10007000DEBFCDBF0E9440000C948A000C940000AB
:1000800084B1816084B984B1826084B984B18460B0
:1000900084B984B1886084B984B1806184B984B141
:1000A000806284B984B1806484B984B1806884B981
:1000B00020E02DC085B18E7F85B985B18D7F85B952
:1000C00085B18B7F85B985B1877F85B985B18F7EF5
:1000D00085B985B18F7D85B985B18F7B85B985B1AE
:1000E0008F7785B935B181E090E0022E02C0880F8C
:1000F000991F0A94E2F7832B85B93FEF83EC99E0CF
:10010000315080409040E1F700C000002F5F283060
:0801100088F2CECFF894FFCF76
:00000001FF
