S01F0000547261666669635F4C696768745F496E746572727570742E73726563C3
S11300000C9434000C9448000C9446000C94460064
S11300100C9446000C9446000C9446000C94460044
S11300200C9446000C9446000C9446000C94460034
S11300300C9446000C9446000C9446000C94460024
S11300400C9446000C9446000C9446000C94460014
S11300500C9446000C9446000C9446000C94460004
S11300600C9446000C94460011241FBECFEFD8E038
S1130070DEBFCDBF21E0A0E0B1E001C01D92A13000
S1130080B207E1F70E9457000C94C9000C940000D9
S11300901F920F920FB60F9211248F9381E08093D9
S11300A000018F910F900FBE0F901F90189584B18F
S11300B0816084B984B1826084B984B1846084B974
S11300C08AB18B7F8AB98BB184608BB98DB381601F
S11300D08DBBE9E6F0E0808182608083789481E0E2
S11300E085B92AEA36EE86E991E021503040804015
S11300F09040D9F7000080910001882371F081E0DD
S113010085B92FEF33E284EF215030408040E1F78E
S113011000C0000010920001E2CF82E085B99FEF99
S11301202BE732E9915020403040E1F700C0000055
S113013080910001882371F081E085B98FEF93E20B
S113014024EF815090402040E1F700C0000010925D
S11301500001C5CF84E085B93AEA86EE96E921E04C
S11301603150804090402040D9F700008091000138
S1130170882309F4B4CF81E085B93FEF83E294EF9B
S1130180315080409040E1F700C00000109200011F
S1090190A6CFF894FFCF96
S9030000FC
