S0280000436F6E74726F6C5F53706565645F4443206D6F746F725F5573696E675F50574D2E73726563DC
S11300000C9434000C9449000C9449000C9449005D
S11300100C9449000C9449000C9449000C94490038
S11300200C9449000C9449000C9449000C94490028
S11300300C9449000C9449000C9449000C94490018
S11300400C9449000C9449000C9449000C94490008
S11300500C9449000C9449000C9449000C944900F8
S11300600C9449000C94490011241FBECFEFD8E032
S1130070DEBFCDBF11E0A0E0B1E0E8E1F1E002C0F5
S113008005900D92A230B107D9F70E9473000C9429
S11300908A000C9400004A9925C02FEF80E792E073
S11300A0215080409040E1F700C0000080910001A1
S11300B08F5F80930001853018F081E08093000108
S11300C080910001833031F0843031F0823031F09E
S11300D080E405C080EC03C08FEF01C080E887BDD9
S11300E04A9BFECF08958AB180648AB98AB18B7F16
S11300F08AB98BB184608BB984B5806884BD85B5B9
S1130100836085BD84B5836084BD80E487BD0E941F
S10B01104B00FDCFF894FFCF72
S10501180100E0
S9030000FC
