S0280000436F6E74726F6C5F53706565645F4443206D6F746F725F5573696E675F50574D2E73726563DC
S11300000C9434000C9449000C9449000C9449005D
S11300100C9449000C9449000C9449000C94490038
S11300200C9449000C9449000C9449000C94490028
S11300300C9449000C9449000C9449000C94490018
S11300400C9449000C9449000C9449000C94490008
S11300500C9449000C9449000C9449000C944900F8
S11300600C9449000C94490011241FBECFEFD8E032
S1130070DEBFCDBF11E0A0E0B1E0E0E5F1E002C0F9
S113008005900D92A230B107D9F70E9486000C9416
S1130090A6000C9400004A9938C02FEF80E792E044
S11300A0215080409040E1F700C000004A992DC0E3
S11300B0809100018F5F80930001853018F081E00A
S11300C08093000180910001823061F018F4813046
S11300D031F010C0833049F0843051F00BC080E41B
S11300E087BD08C080E887BD05C080EC87BD02C01D
S11300F08FEF87BD4A9BFECF2FEF80E792E0215020
S113010080409040E1F700C0000008958AB1806407
S11301108AB98AB18B7F8AB98BB184608BB984B177
S1130120836084B985B1816085B985B18D7F85B9D6
S113013084B5806884BD85B5836085BD84B58360DE
S113014084BD80E487BD0E944B00FDCFF894FFCFAF
S10501500100A8
S9030000FC
