S02800004F6E652D7761795F547261666669635F4C696768745F436F6E74726F6C6C65722E7372656364
S11300000C9434000C943E000C943E000C943E007E
S11300100C943E000C943E000C943E000C943E0064
S11300200C943E000C943E000C943E000C943E0054
S11300300C943E000C943E000C943E000C943E0044
S11300400C943E000C943E000C943E000C943E0034
S11300500C943E000C943E000C943E000C943E0024
S11300600C943E000C943E0011241FBECFEFD8E048
S1130070DEBFCDBF0E945A000C947E000C94000099
S113008016BC85B3826085BBA99BFECF08950F93F0
S11300901F93CF93DF938C01C0E0D0E003C00E9494
S11300A040002196C017D107D0F3DF91CF911F9163
S11300B00F91089584B1816084B984B1806184B959
S11300C084B1806284B984B5826084BD89EF87BDC0
S11300D085B5836085BD81E085B980E197E20E94A2
S11300E0470080E185B988EB9BE00E94470080E2ED
S11300F085B980E197E20E944700EDCFF894FFCFE5
S9030000FC
