:100000000C9434000C9446000C9446000C9446006A
:100010000C9446000C9446000C9446000C945A0034
:100020000C9446000C9446000C9446000C94480036
:100030000C9446000C9446000C9446000C94460028
:100040000C9446000C9446000C9446000C94460018
:100050000C9446000C9446000C9446000C94460008
:100060000C9446000C94460011241FBECFEFD8E03C
:10007000DEBFCDBF21E0A0E0B1E001C01D92A23003
:10008000B207E1F70E947F000C94AC000C940000D2
:100090001F920F920FB60F9211248F939F9395B1D9
:1000A00082E0892785B99F918F910F900FBE0F90A5
:1000B0001F9018951F920F920FB60F9211248F93D5
:1000C0009F9380910001909101010196909301010D
:1000D000809300018091000190910101CF9740F041
:1000E00095B184E0892785B9109201011092000131
:1000F0009F918F910F900FBE0F901F90189584B114
:10010000826084B984B1846084B9E1E8F0E08081E0
:100110008860808380818560808381E19AE7909305
:10012000890080938800EFE6F0E080818260808320
:10013000E0EBF0E0808182608083E1EBF0E08081A1
:10014000876080838CE78093B300E0E7F0E08081F4
:0C015000826080837894FFCFF894FFCF8A
:00000001FF
