S02B0000436F6E74726F6C5F536572766F5F4D6F746F725F5573696E675F506F74656E74696F6D657465722EB4
S11300000C9434000C943E000C943E000C943E007E
S11300100C943E000C943E000C943E000C943E0064
S11300200C943E000C943E000C943E000C943E0054
S11300300C943E000C943E000C943E000C943E0044
S11300400C943E000C943E000C943E000C943E0034
S11300500C943E000C943E000C943E000C943E0024
S11300600C943E000C943E0011241FBECFEFD8E048
S1130070DEBFCDBF0E9478000C94C2000C94000037
S1130080ECE7F0E0808180648083EAE7F0E080813F
S11300908768808308958770ECE7F0E09081987F0B
S11300A0892B8083EAE7F0E08081806480838091FB
S11300B07A0086FDFCCF209178008091790090E051
S11300C0982F8827822B089584B1826084B9E1E84F
S11300D0F0E0808182618083E0E8F0E080818268E2
S11300E0808380E49CE99093870080938600089540
S11300F00E9440000E94640080E00E944B009C012A
S1130100A0EDB7E00E94B3002FEF33E040E050E0F1
S11301100E9491002053384F309389002093880027
S1130120EBCFA1E21A2EAA1BBB1BFD010DC0AA1F17
S1130130BB1FEE1FFF1FA217B307E407F50720F04C
S1130140A21BB30BE40BF50B661F771F881F991FC7
S11301501A9469F760957095809590959B01AC0110
S1130160BD01CF010895A29FB001B39FC001A39F19
S1130170700D811D1124911DB29F700D811D1124DC
S10B0180911D0895F894FFCFCE
S9030000FC
