:100000000C9434000C9449000C9449000C94490061
:100010000C9449000C9449000C9449000C9449003C
:100020000C9449000C9449000C9449000C9449002C
:100030000C9449000C9449000C9449000C9449001C
:100040000C9449000C9449000C9449000C9449000C
:100050000C9449000C9449000C9449000C944900FC
:100060000C9449000C94490011241FBECFEFD8E036
:10007000DEBFCDBF11E0A0E0B1E0E4E2F1E002C0FC
:1000800005900D92A230B107D9F70E9479000C9427
:1000900090000C9400004A992BC02FEF80E792E06B
:1000A000215080409040E1F700C0000080910001A5
:1000B0008F5F80930001863018F081E0809300010B
:1000C00080910001823051F018F4813069F004C051
:1000D000833031F0843031F080E007C080E805C023
:1000E00080EC03C08FEF01C080E487BD4A9BFECF48
:1000F00008958AB180648AB98AB18B7F8AB98BB13D
:1001000084608BB984B5806884BD85B5836085BD06
:1001100084B5836084BD80E487BD0E944B00FDCF21
:04012000F894FFCF81
:020124000100D8
:00000001FF
