S01B0000424D503238305F4F4C45445F446973706C61792E73726563D8
S11300000C9434000C9451000C9451000C94510045
S11300100C9451000C9451000C9451000C94510018
S11300200C9451000C9451000C9451000C94510008
S11300300C9451000C9451000C9451000C945100F8
S11300400C9451000C9451000C9451000C945100E8
S11300500C9451000C9451000C9451000C945100D8
S11300600C9451000C94510011241FBECFEFD8E022
S1130070DEBFCDBF11E0A0E0B1E0ECE3F6E102C0E9
S113008005900D92A237B107D9F721E0A2E7B1E0BC
S113009001C01D92AE38B207E1F70E94D7030C9459
S11300A01C0B0C940000CF93DF93C82F0E94AD0368
S11300B08CEE0E94B9038C2F0E94B9030E94AD03F9
S11300C08DEE0E94B9030E94C303C82F0E94CD0382
S11300D0D82F0E94B50380E09D2F8C2BDF91CF9108
S11300E00895CF93DF93D82FC62F0E94AD038CEED3
S11300F00E94B9038D2F0E94B9038C2F0E94B9036B
S11301000E94B503DF91CF910895CF93C82F0E9429
S1130110AD038CEE0E94B9038C2F0E94B9030E9498
S1130120AD038DEE0E94B9030E94CD03C82F0E9437
S1130130B5038C2FCF91089588E80E9453009093C3
S11301407501809374018AE80E94530090937701AB
S1130150809376018CE80E945300909387018093EA
S113016086018EE80E94530090937F0180937E0164
S113017080E90E945300909379018093780182E989
S11301800E945300909381018093800184E90E942E
S1130190530090937B0180937A0186E90E94530077
S11301A090937D0180937C0188E90E945300909391
S11301B08901809388018AE90E9453009093730116
S11301C0809372018CE90E94530090938301809381
S11301D082018EE90E9453009093850180938401EB
S11301E008952FEF81EE94E0215080409040E1F794
S11301F000C000000E949C0067E284EF0E9471002E
S113020060EA85EF0E9471008FE39CE90197F1F7A2
S113021000C0000008954F925F926F927F928F9278
S11302209F92AF92BF92CF92DF92EF92FF920F9381
S11302301F93CF938AEF0E948500082F8BEF0E94B3
S11302408500C82F8CEF0E948500402F50E060E0AD
S113025070E08A019B010F2EFCE0000F111F221F8A
S1130260331FFA95D1F7F02D4C2F50E060E070E089
S1130270440F551F661F771F440F551F661F771FB6
S1130280440F551F661F771F440F551F661F771FA6
S1130290402B512B622B732B82958F708A019B010B
S11302A0082BC901B8010E9415072B013C0120E06D
S11302B030E040E858E30E94C5074B015C016091BF
S11302C074017091750180E090E00E9413076B0146
S11302D07C0120E030E040E85AE30E94C5079B011E
S11302E0AC01C501B4010E94F9054B015C016091A8
S11302F0760170917701072E000C880B990B0E94F0
S113030015079B01AC01C501B4010E94C5074B014F
S11303105C0120E030E040E057E3C301B2010E94F9
S1130320C5072B013C0120E030E040E059E3C70160
S1130330B6010E94C5079B01AC01C301B2010E9432
S1130340F9059B01AC010E94C5076B017C0160911A
S1130350860170918701072E000C880B990B0E946F
S113036015079B01AC01C701B6010E94C5079B019B
S1130370AC01C501B4010E94FA050E94DD06609338
S11303808A0170938B0180938C0190938D010E945C
S1130390150720E030E040EA55E40E946B06CF9157
S11303A01F910F91FF90EF90DF90CF90BF90AF908F
S11303B09F908F907F906F905F904F9008954F9291
S11303C05F926F927F928F929F92AF92BF92CF92E1
S11303D0DF92EF92FF920F931F93CF93DF9300D09E
S11303E000D0CDB7DEB787EF0E948500882E88EF56
S11303F00E948500F82E89EF0E948500482D50E068
S113040060E070E04A015B01072E7CE0880C991CD7
S1130410AA1CBB1C7A95D1F7702D4F2D50E060E0DB
S113042070E0440F551F661F771F440F551F661F4A
S1130430771F440F551F661F771F440F551F661FF4
S1130440771F482959296A297B2982958F708A0147
S11304509B01082BC901B8010E94150769837A839F
S11304608B839C8360918A0170918B0180918C01B4
S113047090918D010E94150720E030E040E05FE399
S11304800E94C50720E030E04AE757E40E94F905DE
S11304906B017C019B01AC010E94C5074B015C010F
S11304A06091880170918901072E000C880B990BCB
S11304B00E9415079B01AC01C501B4010E94C50748
S11304C020E030E040E058E30E94C5074B015C01A6
S11304D060917C0170917D01072E000C880B990BB3
S11304E00E9415079B01AC01C701B6010E94C50714
S11304F09B01AC010E94FA059B01AC01C501B4014A
S11305000E94FA0520E030E040E85EE30E94C5075F
S11305104B015C0160917A0170917B01072E000C04
S1130520880B990B0E94150720E030E040E857E45F
S11305300E94C5079B01AC01C501B4010E94FA05E4
S11305402B013C016091800170918101072E000C08
S1130550880B990B0E9415079B01AC01C701B601DA
S11305600E94C5079B01AC01C701B6010E94C507E3
S113057020E030E040E056E30E94C5074B015C01F7
S11305806091780170917901072E000C880B990B0A
S11305900E9415079B01AC01C701B6010E94C50763
S11305A09B01AC01C501B4010E94FA0520E030E0D2
S11305B040E056E30E94C50720E030E040E058E305
S11305C00E94C50720E030E040E85FE30E94FA059E
S11305D06B017C0160917E0170917F0180E090E06D
S11305E00E9413079B01AC01C701B6010E94C50715
S11305F06B017C0120E030E0A9010E94660688239B
S113060009F483C029813A814B815C8160E070E008
S113061080E899E40E94F9054B015C0120E030E098
S113062040E859E3C301B2010E94C5079B01AC0134
S1130630C501B4010E94F90520E030E543EC55E41E
S11306400E94C507A70196010E946B066B017C01FD
S11306506091840170918501072E000C880B990B21
S11306600E9415079B01AC01C701B6010E94C50792
S11306709B01AC01C701B6010E94C50720E030E030
S113068040E050E30E94C5074B015C016091820188
S113069070918301072E000C880B990B0E9415079B
S11306A09B01AC01C701B6010E94C50720E030E000
S11306B040E058E30E94C5079B01AC01C501B401A9
S11306C00E94FA054B015C01609172017091730103
S11306D0072E000C880B990B0E9415079B01AC0197
S11306E0C501B4010E94FA0520E030E040E85DE372
S11306F00E94C5079B01AC01C701B6010E94FA051F
S1130700562F472F382F292F04C050E040E030E007
S113071020E0652F742F832F922F0F900F900F904E
S11307200F90DF91CF911F910F91FF90EF90DF9089
S1130730CF90BF90AF909F908F907F906F905F907D
S11307404F9008951092B90088E48093B800ECEBC0
S1130750F0E0808184608083089584EA8093BC0003
S11307608091BC008823E4F7089584E98093BC0059
S113077008958093BB0084E88093BC008091BC0002
S11307808823E4F7089584EC8093BC008091BC0036
S11307908823E4F78091BB00089584E88093BC002B
S11307A08091BC008823E4F78091BB000895CF9327
S11307B0DF93CDB7DEB7A8970FB6F894DEBF0FBEB0
S11307C0CDBF0E94A2030E9458040E94F1000E941F
S11307D00B01F62EE72EB82EA92E0E94DF0120E091
S11307E030E048EC52E40E946B06162F072FD82EF7
S11307F0C92EAF92BF92EF92FF9285E591E09F934D
S11308008F93CE0101967C019F938F930E943208AF
S1130810CF92DF920F931F9382E691E09F938F9381
S11308208E010B5E1F4F1F930F930E9432080E948C
S1130830BF0460E080E00E94AD04C7010E94EC05A3
S113084062E080E00E94AD04C8010E94EC059FEFC5
S113085027EA81E6915020408040E1F700C0000083
S11308600FB6F894DEBF0FBECDBFB1CFCF93C82F64
S11308700E94AD0388E70E94B90380E00E94B90397
S11308808C2F0E94B9030E94B503CF910895CF9392
S1130890C82F0E94AD0388E70E94B90380E40E9438
S11308A0B9038C2F0E94B9030E94B503CF91089518
S11308B02FEF81EE94E0215080409040E1F700C09A
S11308C000008EEA0E94360485ED0E94360480E81A
S11308D00E94360488EA0E9436048FE30E9436049C
S11308E083ED0E94360480E00E94360480E40E9476
S11308F036048DE80E94360484E10E94360480E2C6
S11309000E94360480E00E94360481EA0E94360484
S113091088EC0E9436048AED0E94360482E10E942B
S1130920360481E80E9436048FEC0E94360489ED77
S11309300E94360481EF0E9436048BED0E94360437
S113094080E40E94360484EA0E94360486EA0E9407
S113095036048FEA0E9436040895CF93C82F80EBA3
S1130960860F0E9436048C2F8F700E9436048C2FC1
S113097082958F70805F0E943604CF910895CF9343
S1130980DF9360E080E00E94AD04C0E0D0E004C0EA
S113099080E00E9447042196C11584E0D807C0F383
S11309A0DF91CF9108950F931F93CF93DF93CDB72A
S11309B0DEB7E2970FB6F894DEBF0FBECDBF082FA7
S11309C0803251F405C080E00E9447041F5F01C0DB
S11309D010E01630C0F3F5C080ED800F8A3038F592
S11309E082E3E0E0F1E0DE01119601900D928A9538
S11309F0E1F710E016C0802F90E0C097FC01EE0FE5
S1130A00FF1FEE0FFF1FE80FF91F81E090E08C0F2E
S1130A109D1FE80FF91FE10FF11D80810E9447041B
S1130A201F5F153040F380E00E944704CAC00435BC
S1130A30D9F485E0E2E3F1E0DE01119601900D9234
S1130A408A95E1F710E00AC0E1E0F0E0EC0FFD1F49
S1130A50E10FF11D80810E9447041F5F1530A0F350
S1130A6080E00E944704ADC00536D9F485E0E7E391
S1130A70F1E0DE01119601900D928A95E1F710E004
S1130A800AC0E1E0F0E0EC0FFD1FE10FF11D8081F1
S1130A900E9447041F5F1530A0F380E00E944704C2
S1130AA090C00D36D9F485E0ECE3F1E0DE01119657
S1130AB001900D928A95E1F710E00AC0E1E0F0E0C0
S1130AC0EC0FFD1FE10FF11D80810E9447041F5FA1
S1130AD01530A0F380E00E94470473C00037D9F4B6
S1130AE085E0E1E4F1E0DE01119601900D928A9532
S1130AF0E1F710E00AC0E1E0F0E0EC0FFD1FE10FC8
S1130B00F11D80810E9447041F5F1530A0F380E02F
S1130B100E94470456C00A33D9F485E0E6E4F1E0C4
S1130B20DE01119601900D928A95E1F710E00AC05A
S1130B30E1E0F0E0EC0FFD1FE10FF11D80810E9468
S1130B4047041F5F1530A0F380E00E94470439C0BA
S1130B500E32D9F485E0EBE4F1E0DE011196019068
S1130B600D928A95E1F710E00AC0E1E0F0E0EC0FA5
S1130B70FD1FE10FF11D80810E9447041F5F1530A6
S1130B80A0F380E00E9447041CC00334D1F485E044
S1130B90E0E5F1E0DE01119601900D928A95E1F70E
S1130BA010E00AC0E1E0F0E0EC0FFD1FE10FF11DE1
S1130BB080810E9447041F5F1530A0F380E00E94EB
S1130BC04704E2960FB6F894DEBF0FBECDBFDF91A7
S1130BD0CF911F910F910895CF93DF93EC0103C040
S1130BE021960E94D30488818111FACFDF91CF919D
S1130BF008955058BB27AA270E9411060C948B070E
S1130C000E947D0738F00E94840720F039F49F3F4A
S1130C1019F426F40C947A070EF4E095E7FB0C948F
S1130C207407E92F0E949C0758F3BA1762077307E9
S1130C308407950720F079F4A6F50C94BE070EF40A
S1130C40E0950B2EBA2FA02D0B01B90190010C01D8
S1130C50CA01A0011124FF27591B99F0593F50F4F0
S1130C60503E68F11A16F040A22F232F342F442748
S1130C70585FF3CF469537952795A795F040539540
S1130C80C9F77EF41F16BA0B620B730B840BBAF010
S1130C909150A1F0FF0FBB1F661F771F881FC2F77B
S1130CA00EC0BA0F621F731F841F48F4879577958F
S1130CB06795B795F7959E3F08F0B0CF9395880F49
S1130CC008F09927EE0F9795879508950E9450078D
S1130CD008F481E008950E947F060C948B070E941B
S1130CE0840758F00E947D0740F029F45F3F29F003
S1130CF00C94740751110C94BF070C947A070E944A
S1130D009C0768F39923B1F3552391F3951B550B75
S1130D10BB27AA2762177307840738F09F5F5F4FCA
S1130D20220F331F441FAA1FA9F335D00E2E3AF009
S1130D30E0E832D091505040E695001CCAF72BD021
S1130D40FE2F29D0660F771F881FBB1F2617370772
S1130D504807AB07B0E809F0BB0B802DBF01FF27A4
S1130D6093585F4F3AF09E3F510578F00C94740706
S1130D700C94BF075F3FE4F3983ED4F386957795D0
S1130D806795B795F7959F5FC9F7880F911D96955D
S1130D90879597F90895E1E0660F771F881FBB1FB9
S1130DA0621773078407BA0720F0621B730B840B66
S1130DB0BA0BEE1F88F7E09508950E94E406689444
S1130DC0B1110C94BF0708950E94A40788F09F579F
S1130DD098F0B92F9927B751B0F0E1F0660F771F5B
S1130DE0881F991F1AF0BA95C9F714C0B13091F051
S1130DF00E94BE07B1E008950C94BE07672F782FB8
S1130E008827B85F39F0B93FCCF386957795679515
S1130E10B395D9F73EF490958095709561957F4F81
S1130E208F4F9F4F0895E89409C097FB3EF4909527
S1130E308095709561957F4F8F4F9F4F9923A9F0AF
S1130E40F92F96E9BB279395F6958795779567953E
S1130E50B795F111F8CFFAF4BB0F11F460FF1BC082
S1130E606F5F7F4F8F4F9F4F16C0882311F096E915
S1130E7011C0772321F09EE8872F762F05C06623C3
S1130E8071F096E8862F70E060E02AF09A95660F7C
S1130E90771F881FDAF7880F9695879597F9089535
S1130EA0990F0008550FAA0BE0E8FEEF1616170677
S1130EB0E807F907C0F012161306E407F50798F0DF
S1130EC0621B730B840B950B39F40A2661F0232BF8
S1130ED0242B252B21F408950A2609F4A140A69574
S1130EE08FEF811D811D089597F99F6780E870E059
S1130EF060E008959FEF80EC089500240A9416168C
S1130F00170618060906089500240A9412161306F3
S1130F10140605060895092E0394000C11F4882381
S1130F2052F0BB0F40F4BF2B11F460FF04C06F5F9D
S1130F307F4F8F4F9F4F089557FD9058440F551F73
S1130F4059F05F3F71F04795880F97FB991F61F047
S1130F509F3F79F087950895121613061406551FBE
S1130F60F2CF4695F1DF08C0161617061806991F2A
S1130F70F1CF86957105610508940895E894BB271F
S1130F8066277727CB0197F908950E94D8070C9418
S1130F908B070E947D0738F00E94840720F0952378
S1130FA011F00C9474070C947A0711240C94BF0765
S1130FB00E949C0770F3959FC1F3950F50E0551F55
S1130FC0629FF001729FBB27F00DB11D639FAA279A
S1130FD0F00DB11DAA1F649F6627B00DA11D661FE9
S1130FE0829F2227B00DA11D621F739FB00DA11D0A
S1130FF0621F839FA00D611D221F749F3327A00DC4
S1131000611D231F849F600D211D822F762F6A2F5F
S113101011249F5750409AF0F1F088234AF0EE0FC4
S1131020FF1FBB1F661F771F881F91505040A9F7F1
S11310309E3F510580F00C9474070C94BF075F3FEA
S1131040E4F3983ED4F3869577956795B795F7952D
S1131050E7959F5FC1F7FE2B880F911D96958795A5
S113106097F90895AEE0B0E0E8E3F8E00C94F30AF1
S11310700D891E8986E08C831A8309838FEF9FE78D
S11310809E838D83AE01475E5F4F6F89788DCE015D
S113109001960E945408EF81F885E00FF11F108239
S11310A02E96E4E00C940F0BABE0B0E0EAE5F8E038
S11310B00C94E50A6C017B018A01FC0117821682FB
S11310C0838181FFCCC1CE0101963C01F60193815D
S11310D0F70193FD859193FF81917F01882309F4A2
S11310E0BAC1853239F493FD859193FF81917F01D3
S11310F0853229F4B60190E00E944B0AE7CF912C87
S1131100212C312CFFE1F315D8F08B3279F038F42F
S1131110803279F08332A1F4232D20611DC08D32F9
S113112061F0803369F4232D216016C0832D826021
S1131130382EE32DE4603E2E2AC0F32DF8601DC046
S113114037FC2DC020ED280F2A3040F08E32B9F440
S113115036FC81C1232D2064322E19C036FE06C010
S11311608AE0989E200D1124922E11C0EAE02E9E52
S1131170200D1124222EF32DF0623F2E08C08C3650
S113118021F4832D8068382E02C0883641F4F7019B
S113119093FD859193FF81917F018111B3CF982FA6
S11311A09F7D9554933028F40C5F1F4F9FE39983E0
S11311B00DC0833631F0833771F0833509F059C09F
S11311C021C0F801808189830E5F1F4F8824839496
S11311D0912C530113C02801F2E04F0E511CF80169
S11311E0A080B18036FE03C0692D70E002C06FEFAD
S11311F07FEFC5010E94400A4C018201F32DFF7765
S11312003F2E16C0280122E0420E511CF801A08096
S1131210B18036FE03C0692D70E002C06FEF7FEF2E
S1131220C5010E94350A4C01F32DF0683F2E82015E
S113123033FC1BC0822D90E088169906B0F4B601E9
S113124080E290E00E944B0A2A94F4CFF50137FC27
S1131250859137FE81915F01B60190E00E944B0AAF
S113126021102A9421E0821A91088114910471F7C3
S1131270E8C0843611F0893641F5F80137FE07C01D
S113128060817181828193810C5F1F4F08C06081EE
S11312907181072E000C880B990B0E5F1F4FF32DE5
S11312A0FF763F2E97FF09C09095809570956195C4
S11312B07F4F8F4F9F4FF0683F2E2AE030E0A3010D
S11312C00E94870A882E861845C0853731F4232D5D
S11312D02F7EB22E2AE030E025C0932D997FB92EBF
S11312E08F36C1F018F4883579F0B5C0803719F01D
S11312F0883721F0B0C0E92FE061BE2EB4FE0DC0E6
S1131300FB2DF460BF2E09C034FE0AC0292F2660CD
S1131310B22E06C028E030E005C020E130E002C073
S113132020E132E0F801B7FE07C06081718182815B
S113133093810C5F1F4F06C06081718180E090E053
S11313400E5F1F4FA3010E94870A882E8618FB2D6B
S1131350FF773F2E36FE0DC0232D2E7FA22E89143B
S113136058F434FE0BC032FC09C0832D8E7EA82EA7
S113137005C0B82CA32C03C0B82C01C0B92CA4FE02
S11313800FC0FE01E80DF11D8081803321F49A2DF8
S1131390997EA92E09C0A2FE06C0B394B39404C0DA
S11313A08A2D867809F0B394A3FC11C0A0FE06C070
S11313B0B21488F4280C922C9B180EC0B21460F45A
S11313C0B60180E290E00E944B0AB394F7CFB214C6
S11313D018F42B1802C0982C212CA4FE10C0B601BE
S11313E080E390E00E944B0AA2FE17C0A1FC03C058
S11313F088E790E002C088E590E0B6010CC08A2D31
S1131400867859F0A1FE02C08BE201C080E2A7FCFD
S11314108DE2B60190E00E944B0A891438F4B601BB
S113142080E390E00E944B0A9A94F7CF8A94F301E8
S1131430E80DF11D8081B60190E00E944B0A8110F5
S1131440F5CF222009F442CEB60180E290E00E945A
S11314504B0A2A94F6CFF6018681978102C08FEF5A
S11314609FEF2B96E2E10C94010BFC010590615077
S113147070400110D8F7809590958E0F9F1F0895A6
S1131480FC016150704001900110D8F7809590954F
S11314908E0F9F1F08950F931F93CF93DF93FB012C
S11314A0238121FD03C08FEF9FEF2CC022FF16C0C4
S11314B046815781248135814217530744F4A08122
S11314C0B1819D012F5F3F4F318320838C9326810F
S11314D037812F5F3F4F3783268314C08B01EC0184
S11314E0FB010084F185E02D0995892BE1F6D801F3
S11314F016968D919C911797019617969C938E93AF
S11315001697CE01DF91CF911F910F910895FA01A3
S1131510AA27283051F1203181F1E8946F936E7F2E
S11315206E5F7F4F8F4F9F4FAF4FB1E03ED0B4E01F
S11315303CD0670F781F891F9A1FA11D680F791F60
S11315408A1F911DA11D6A0F711D811D911DA11D71
S113155020D009F468943F912AE0269F1124301981
S1131560305D3193DEF6CF010895462F4770405D1C
S11315704193B3E00FD0C9F7F6CF462F4F70405DCB
S11315804A3318F0495D31FD4052419302D0A9F726
S1131590EACFB4E0A6959795879577956795BA9520
S11315A0C9F700976105710508959B01AC010A2EE6
S11315B006945795479537952795BA95C9F7620FBD
S11315C0731F841F951FA01D08952F923F924F9261
S11315D05F926F927F928F929F92AF92BF92CF92BF
S11315E0DF92EF92FF920F931F93CF93DF93CDB7C8
S11315F0DEB7CA1BDB0B0FB6F894DEBF0FBECDBF40
S113160009942A88398848885F846E847D848C8410
S11316109B84AA84B984C884DF80EE80FD800C8119
S11316201B81AA81B981CE0FD11D0FB6F894DEBFFC
S10F16300FBECDBFED010895F894FFCF6C
S113163C3E5149453E00427F40004261514946219A
S113164C41454B311814127F1027454545393C4A06
S113165C4949300171090503364949493606494956
S113166C291E01017F010138545454187C041804B8
S113167C787C1414140800363600000060600000F6
S113168C3E4141412254656D703A20252E3266202C
S113169C4300507265733A20252E326620685061DF
S10516AC000038
S9030000FC
