:100000000C94B1000C94CE000C94CE000C94CE0055
:100010000C94CE000C94CE000C94CE000C94CE0028
:100020000C94CE000C94CE000C94CE000C94CE0018
:100030000C94CE000C94CE000C94CE000C94CE0008
:100040000C94CE000C94CE000C94CE000C94CE00F8
:100050000C94CE000C94CE000C94CE000C94CE00E8
:100060000C94CE000C94CE0000407A10F35A00A0FD
:10007000724E18090010A5D4E80000E87648170071
:1000800000E40B54020000CA9A3B000000E1F505B1
:10009000000080969800000040420F000000A086FB
:1000A00001000000102700000000E803000000002D
:1000B0006400000000000A000000000001000000D1
:1000C00000002C76D888DC674F0823DFC1DFAE59EB
:1000D000E1B1B796E5E3E453C63AE651997696E87E
:1000E000E6C28426EB898C9B62ED407C6FFCEFBC02
:1000F0009C9F40F2BAA56FA5F490055A2AF75C932D
:100100006B6CF9676DC11BFCE0E40D47FEF520E662
:10011000B500D0ED902E0300943577050080841E45
:10012000080000204E0A000000C80C333333330FA0
:10013000986E12831141EF8D2114893BE65516CF3D
:10014000FEE6DB18D1844B381BF77C1D901DA4BB49
:10015000E424203284725E228100C9F124ECA1E5FE
:100160003D2711241FBECFEFD8E0DEBFCDBF12E088
:10017000A0E0B1E0E2EBFDE102C005900D92A032FB
:10018000B107D9F722E0A0E2B2E001C01D92AC3382
:10019000B207E1F70E9454040C94D70E0C940000AF
:1001A000CF93DF93C82F0E942A048CEE0E9436045E
:1001B0008C2F0E9436040E942A048DEE0E94360481
:1001C0000E944004C82F0E944A04D82F0E94320483
:1001D00080E09D2F8C2BDF91CF910895CF93DF93FB
:1001E000D82FC62F0E942A048CEE0E9436048D2F31
:1001F0000E9436048C2F0E9436040E943204DF9144
:10020000CF910895CF93C82F0E942A048CEE0E94AC
:1002100036048C2F0E9436040E942A048DEE0E9420
:1002200036040E944A04C82F0E9432048C2FCF91BA
:10023000089588E80E94D0009093230280932202C0
:100240008AE80E94D00090932502809324028CE8D3
:100250000E94D00090933502809334028EE80E9471
:10026000D00090932D0280932C0280E90E94D00050
:10027000909327028093260282E90E94D0009093F7
:100280002F0280932E0284E90E94D00090932902CD
:100290008093280286E90E94D00090932B028093DD
:1002A0002A0288E90E94D000909337028093360298
:1002B0008AE90E94D00090932102809320028CE969
:1002C0000E94D00090933102809330028EE90E9408
:1002D000D000909333028093320208952FEF81EE85
:1002E00094E0215080409040E1F700C000000E945F
:1002F000190167E284EF0E94EE0060EA85EF0E9438
:10030000EE008FE39CE90197F1F700C0000008952B
:100310004F925F926F927F928F929F92AF92BF9215
:10032000CF92DF92EF92FF920F931F93CF938AEFBA
:100330000E940201082F8BEF0E940201C82F8CEF50
:100340000E940201402F50E060E070E08A019B01B2
:100350000F2EFCE0000F111F221F331FFA95D1F75B
:10036000F02D4C2F50E060E070E0440F551F661FE9
:10037000771F440F551F661F771F440F551F661FB9
:10038000771F440F551F661F771F402B512B622B81
:10039000732B82958F708A019B01082BC901B801CC
:1003A0000E947E082B013C0120E030E040E858E349
:1003B0000E942E094B015C01609122027091230280
:1003C00080E090E00E947C086B017C0120E030E03E
:1003D00040E85AE30E942E099B01AC01C501B4011B
:1003E0000E9462074B015C0160912402709125021A
:1003F000072E000C880B990B0E947E089B01AC0114
:10040000C501B4010E942E094B015C0120E030E0DF
:1004100040E057E3C301B2010E942E092B013C01C9
:1004200020E030E040E059E3C701B6010E942E0908
:100430009B01AC01C301B2010E9462079B01AC01A8
:100440000E942E096B017C0160913402709135028B
:10045000072E000C880B990B0E947E089B01AC01B3
:10046000C701B6010E942E099B01AC01C501B40170
:100470000E9463070E944608609338027093390215
:1004800080933A0290933B020E947E0820E030E085
:1004900040EA55E40E94D407CF911F910F91FF903D
:1004A000EF90DF90CF90BF90AF909F908F907F9014
:1004B0006F905F904F9008954F925F926F927F92EE
:1004C0008F929F92AF92BF92CF92DF92EF92FF9264
:1004D0000F931F93CF93DF9300D000D0CDB7DEB73B
:1004E00087EF0E940201882E88EF0E940201F82EF9
:1004F00089EF0E940201482D50E060E070E04A015F
:100500005B01072E7CE0880C991CAA1CBB1C7A9509
:10051000D1F7702D4F2D50E060E070E0440F551F73
:10052000661F771F440F551F661F771F440F551F07
:10053000661F771F440F551F661F771F48295929CB
:100540006A297B2982958F708A019B01082BC9013A
:10055000B8010E947E0869837A838B839C836091B3
:1005600038027091390280913A0290913B020E94C8
:100570007E0820E030E040E05FE30E942E0920E0AA
:1005800030E04AE757E40E9462076B017C019B015F
:10059000AC010E942E094B015C0160913602709102
:1005A0003702072E000C880B990B0E947E089B01D6
:1005B000AC01C501B4010E942E0920E030E040E00A
:1005C00058E30E942E094B015C0160912A02709150
:1005D0002B02072E000C880B990B0E947E089B01B2
:1005E000AC01C701B6010E942E099B01AC010E941B
:1005F00063079B01AC01C501B4010E94630720E0C1
:1006000030E040E85EE30E942E094B015C016091FE
:10061000280270912902072E000C880B990B0E946A
:100620007E0820E030E040E857E40E942E099B015C
:10063000AC01C501B4010E9463072B013C0160912C
:100640002E0270912F02072E000C880B990B0E942E
:100650007E089B01AC01C701B6010E942E099B01D7
:10066000AC01C701B6010E942E0920E030E040E055
:1006700056E30E942E094B015C01609126027091A5
:100680002702072E000C880B990B0E947E089B0105
:10069000AC01C701B6010E942E099B01AC01C50146
:1006A000B4010E94630720E030E040E056E30E947E
:1006B0002E0920E030E040E058E30E942E0920E0BF
:1006C00030E040E85FE30E9463076B017C016091CA
:1006D0002C0270912D0280E090E00E947C089B012A
:1006E000AC01C701B6010E942E096B017C0120E01C
:1006F00030E0A9010E94CF07882309F483C0298133
:100700003A814B815C8160E070E080E899E40E946E
:1007100062074B015C0120E030E040E859E3C3018F
:10072000B2010E942E099B01AC01C501B4010E94D7
:10073000620720E030E543EC55E40E942E09A70152
:1007400096010E94D4076B017C0160913202709186
:100750003302072E000C880B990B0E947E089B0128
:10076000AC01C701B6010E942E099B01AC01C70173
:10077000B6010E942E0920E030E040E050E30E94E4
:100780002E094B015C016091300270913102072EFD
:10079000000C880B990B0E947E089B01AC01C701DD
:1007A000B6010E942E0920E030E040E058E30E94AC
:1007B0002E099B01AC01C501B4010E9463074B01E6
:1007C0005C016091200270912102072E000C880BC1
:1007D000990B0E947E089B01AC01C501B4010E94E7
:1007E000630720E030E040E85DE30E942E099B01B2
:1007F000AC01C701B6010E946307562F472F382F5F
:10080000292F04C050E040E030E020E0652F742F35
:10081000832F922F0F900F900F900F90DF91CF9119
:100820001F910F91FF90EF90DF90CF90BF90AF900E
:100830009F908F907F906F905F904F90089510924F
:10084000B90088E48093B800ECEBF0E0808184602C
:100850008083089584EA8093BC008091BC00882343
:10086000E4F7089584E98093BC0008958093BB0069
:1008700084E88093BC008091BC008823E4F708954D
:1008800084EC8093BC008091BC008823E4F78091C5
:10089000BB00089584E88093BC008091BC0088234D
:1008A000E4F78091BB000895CF93DF93CDB7DEB717
:1008B000EC970FB6F894DEBF0FBECDBF0E941F04A9
:1008C0000E94E2040E946E010E9488012B013C01FB
:1008D0000E945C0220E030E048EC52E40E94D40721
:1008E0004B015C016E0123E3C20ED11C860122E0A4
:1008F00045E0C301B2010E949B097E0189E2E80E36
:10090000F11C870122E046E0C501B4010E949B0969
:10091000DF92CF9289E092E09F938F93CE01019670
:100920006C019F938F930E94BB09FF92EF9284E129
:1009300092E09F938F93045111091F930F930E948C
:10094000BB090E94490560E085E00E943705C601A9
:100950000E94550762E085E00E943705C8010E94A9
:1009600055079FEF27EA81E6915020408040E1F74C
:1009700000C000000FB6F894DEBF0FBECDBFA4CFFD
:10098000CF93C82F0E942A0488E70E94360480E093
:100990000E9436048C2F0E9436040E943204CF91AC
:1009A0000895CF93C82F0E942A0488E70E94360436
:1009B00080E40E9436048C2F0E9436040E94320488
:1009C000CF9108952FEF81EE94E021508040904028
:1009D000E1F700C000008EEA0E94C00485ED0E948D
:1009E000C00480E80E94C00488EA0E94C0048FE32B
:1009F0000E94C00483ED0E94C00480E00E94C004F5
:100A000080E40E94C0048DE80E94C00484E10E943A
:100A1000C00480E20E94C00480E00E94C00481EA19
:100A20000E94C00488EC0E94C0048AED0E94C004A9
:100A300082E10E94C00481E80E94C0048FEC0E9401
:100A4000C00489ED0E94C00481EF0E94C0048BEDB8
:100A50000E94C00480E40E94C00484EA0E94C00492
:100A600086EA0E94C0048FEA0E94C0040895CF93D2
:100A7000C82F80EB860F0E94C0048C2F8F700E94BD
:100A8000C0048C2F82958F70805F0E94C004CF912C
:100A90000895CF93DF93D0E017C06D2F80E00E94C0
:100AA00037050E942A0488E70E94360480E40E94E9
:100AB0003604C0E004C080E00E943604CF5FCC233F
:100AC000D4F70E943204DF5FD83038F360E080E072
:100AD0000E943705DF91CF910895FF920F931F93E6
:100AE000CF93DF93CDB7DEB7C95ED2400FB6F8948F
:100AF000DEBF0FBECDBF182FFE01319680EE91E014
:100B0000DF019C011D9221503040E1F78FE588877D
:100B100087E08C878E8724E1288B4FE7498B2A8BCF
:100B20004B8B2C8B84E28D8B8AE28E8B4F8B888F44
:100B3000B2E1B98F83E28A8F83E18B8F88E08C8F5B
:100B400094E69D8F92E69E8F36E33F8F99E498A3BB
:100B500055E559A352E25AA3F0E5FBA3E5E0EDA366
:100B600073E07EA3ACE1AAA75BA761E46CA76FA7C3
:100B700058ABA9AB2BAB8CAB5EE35DAB8EAB2FABB5
:100B800088AF89AF5AAF8BAF8CAFFEAFF0E3FFAF4A
:100B900023968FAF239724968FAF249725968FAFF8
:100BA000259726968FAF269727968FAF2797A0E693
:100BB0002996AFAF29972A96AFAF2A97A0E22D9634
:100BC000AFAF2D97A0E12E96AFAF2E972F968FAF98
:100BD0002F9784E060968FAF609782E061968FAF29
:100BE000619762965FAF629701E563960FAF639777
:100BF00064969FAF649785E465968FAF6597669618
:100C00005FAF669752E468965FAF689769964FAF9B
:100C100069976894FF24F6F86A96FFAE6A976C9617
:100C20005FAF6C9751E66D965FAF6D976E960FAFA5
:100C30006E976F969FAF6F9756E4A0965FAFA097A1
:100C400051E2A1965FAFA197A2966FAFA297A3962C
:100C50008FAFA3975BE4A4965FAFA49751E3A596EB
:100C60005FAFA59758E1A6965FAFA697A7962FAF5F
:100C7000A797A896BFAFA897A9964FAFA997AA968E
:100C8000AFAFAA9727E2AB962FAFAB97AC968FAFDB
:100C9000AC97AD968FAFAD97AE968FAFAE9789E319
:100CA000AF968FAFAF978CE3E0968FAFE0978AE473
:100CB000E1968FAFE197E2969FAFE297E3969FAF01
:100CC000E397E496FFAFE49781E0E5968FAFE59771
:100CD00081E7E6968FAFE69789E0E7968FAFE797D3
:100CE000E896EFAFE897E9967FAFE997EA963FAFCE
:100CF000EA97EB969FAFEB97EC969FAFEC97ED964C
:100D00009FAFED97EE963FAFEE9786E0EF968FAFF1
:100D1000EF97C158DF4F9883CF57D040C058DF4F6F
:100D20009883C058D04089E2CF57DF4F8883C1589D
:100D3000D0408EE1CE57DF4F8883C258D040CC5789
:100D4000DF4F3883C458D040CB57DF4F3883C55866
:100D5000D04082E8E0E0F1E0DE01AF51BE4F01900B
:100D60000D928A95E1F782E8E2E8F1E0DE01AD5903
:100D7000BD4F01900D928A95E1F78FEB810F8A317B
:100D8000C8F01CC0812F90E081549109FC01EE0F46
:100D9000FF1FEE0FFF1FE80FF91F81EE91E08C0F90
:100DA0009D1FE80FF91FE00FF11D80810E94D10403
:100DB0000F5F01C000E0053028F367C08FE9810FA5
:100DC0008A31C8F01CC0812F90E081569109FC0146
:100DD000EE0FFF1FEE0FFF1FE80FF91FA3E6B2E0B3
:100DE000AC0FBD1FEA0FFB1FE00FF11D80810E94B9
:100DF000D1040F5F01C000E0053028F346C080EE4B
:100E0000810F8B31C0F01BC0812F90E08097FC01D7
:100E1000EE0FFF1FEE0FFF1FE80FF91F21E030E07C
:100E20002C0F3D1FE20FF31FE00FF11D80810E9488
:100E3000D1040F5F01C000E0053030F326C01E373B
:100E400009F585E0E4E0F2E0DE01AB51BD4F019031
:100E50000D928A95E1F710E00AC0E5EEF2E0EC0FA2
:100E6000FD1FE10FF11D80810E94D1041F5F15302D
:100E7000A0F380E00E94D10408C080E00E94D10469
:100E80001F5F01C010E01530C0F380E00E94D10464
:100E9000C751DD4F0FB6F894DEBF0FBECDBFDF9157
:100EA000CF911F910F91FF900895CF93DF93EC01A5
:100EB00003C021960E946D0588818111FACFDF91D0
:100EC000CF9108955058BB27AA270E947A070C9407
:100ED000F4080E94E60838F00E94ED0820F039F48A
:100EE0009F3F19F426F40C94E3080EF4E095E7FB19
:100EF0000C94DD08E92F0E94050958F3BA17620720
:100F000073078407950720F079F4A6F50C94270958
:100F10000EF4E0950B2EBA2FA02D0B01B901900114
:100F20000C01CA01A0011124FF27591B99F0593F58
:100F300050F4503E68F11A16F040A22F232F342FA0
:100F40004427585FF3CF469537952795A795F040EE
:100F50005395C9F77EF41F16BA0B620B730B840B03
:100F6000BAF09150A1F0FF0FBB1F661F771F881FBB
:100F7000C2F70EC0BA0F621F731F841F48F4879513
:100F800077956795B795F7959E3F08F0B0CF939505
:100F9000880F08F09927EE0F9795879508950E947E
:100FA000B90808F481E008950E94E8070C94F40859
:100FB0000E94ED0858F00E94E60840F029F45F3FD7
:100FC00029F00C94DD0851110C9428090C94E308C5
:100FD0000E94050968F39923B1F3552391F3951BFA
:100FE000550BBB27AA2762177307840738F09F5F4A
:100FF0005F4F220F331F441FAA1FA9F335D00E2EB7
:101000003AF0E0E832D091505040E695001CCAF723
:101010002BD0FE2F29D0660F771F881FBB1F2617E6
:1010200037074807AB07B0E809F0BB0B802DBF01BD
:10103000FF2793585F4F3AF09E3F510578F00C948C
:10104000DD080C9428095F3FE4F3983ED4F38695BD
:1010500077956795B795F7959F5FC9F7880F911DAD
:101060009695879597F90895E1E0660F771F881F99
:10107000BB1F621773078407BA0720F0621B730B4C
:10108000840BBA0BEE1F88F7E09508950E944D0877
:101090006894B1110C94280908950E940D0988F0F4
:1010A0009F5798F0B92F9927B751B0F0E1F0660F2C
:1010B000771F881F991F1AF0BA95C9F714C0B1306D
:1010C00091F00E942709B1E008950C942709672F39
:1010D000782F8827B85F39F0B93FCCF3869577959C
:1010E0006795B395D9F73EF4909580957095619585
:1010F0007F4F8F4F9F4F0895E89409C097FB3EF4B0
:1011000090958095709561957F4F8F4F9F4F992354
:10111000A9F0F92F96E9BB279395F69587957795D2
:101120006795B795F111F8CFFAF4BB0F11F460FF92
:101130001BC06F5F7F4F8F4F9F4F16C0882311F0EA
:1011400096E911C0772321F09EE8872F762F05C0FE
:10115000662371F096E8862F70E060E02AF09A9599
:10116000660F771F881FDAF7880F9695879597F98E
:101170000895990F0008550FAA0BE0E8FEEF161628
:101180001706E807F907C0F012161306E407F5077B
:1011900098F0621B730B840B950B39F40A2661F0EF
:1011A000232B242B252B21F408950A2609F4A14092
:1011B000A6958FEF811D811D089597F99F6780E89F
:1011C00070E060E008959FEF80EC089500240A9499
:1011D0001616170618060906089500240A94121612
:1011E0001306140605060895092E0394000C11F445
:1011F000882352F0BB0F40F4BF2B11F460FF04C0F2
:101200006F5F7F4F8F4F9F4F089557FD9058440F4A
:10121000551F59F05F3F71F04795880F97FB991F55
:1012200061F09F3F79F08795089512161306140612
:10123000551FF2CF4695F1DF08C01616170618069F
:10124000991FF1CF86957105610508940895E8947A
:10125000BB2766277727CB0197F908950E9441099C
:101260000C94F4080E94E60838F00E94ED0820F083
:10127000952311F00C94DD080C94E30811240C94D0
:1012800028090E94050970F3959FC1F3950F50E05E
:10129000551F629FF001729FBB27F00DB11D639F28
:1012A000AA27F00DB11DAA1F649F6627B00DA11DCE
:1012B000661F829F2227B00DA11D621F739FB00D74
:1012C000A11D621F839FA00D611D221F749F3327E4
:1012D000A00D611D231F849F600D211D822F762F7D
:1012E0006A2F11249F5750409AF0F1F088234AF05A
:1012F000EE0FFF1FBB1F661F771F881F91505040C6
:10130000A9F79E3F510580F00C94DD080C94280944
:101310005F3FE4F3983ED4F3869577956795B7954C
:10132000F795E7959F5FC1F7FE2B880F911D969566
:10133000879597F90895EF920F931F93CF93DF93BB
:10134000E80147FD02C034E001C034E1042E000C86
:10135000550B57FF03C0519541955109E32E022FBC
:10136000242FAE010E94BE0BCE01DF91CF911F91C1
:101370000F91EF900895AEE0B0E0E1ECF9E00C944D
:10138000AE0E0D891E8986E08C831A8309838FEF48
:101390009FE79E838D83AE01475E5F4F6F89788D97
:1013A000CE0101960E94DD09EF81F885E00FF11F63
:1013B00010822E96E4E00C94CA0EABE0B0E0E3EEAF
:1013C000F9E00C94A00E6C017B018A01FC011782EC
:1013D0001682838181FFCCC1CE0101963C01F601CA
:1013E0009381F70193FD859193FF81917F0188237C
:1013F00009F4BAC1853239F493FD859193FF819147
:101400007F01853229F4B60190E00E94060EE7CFF5
:10141000912C212C312CFFE1F315D8F08B3279F08F
:1014200038F4803279F08332A1F4232D20611DC07D
:101430008D3261F0803369F4232D216016C0832D35
:101440008260382EE32DE4603E2E2AC0F32DF86032
:101450001DC037FC2DC020ED280F2A3040F08E3201
:10146000B9F436FC81C1232D2064322E19C036FE1A
:1014700006C08AE0989E200D1124922E11C0EAE049
:101480002E9E200D1124222EF32DF0623F2E08C037
:101490008C3621F4832D8068382E02C0883641F4C2
:1014A000F70193FD859193FF81917F018111B3CF66
:1014B000982F9F7D9554933028F40C5F1F4F9FE326
:1014C00099830DC0833631F0833771F0833509F08D
:1014D00059C021C0F801808189830E5F1F4F882485
:1014E0008394912C530113C02801F2E04F0E511C3C
:1014F000F801A080B18036FE03C0692D70E002C003
:101500006FEF7FEFC5010E94FB0D4C018201F32DAF
:10151000FF773F2E16C0280122E0420E511CF80131
:10152000A080B18036FE03C0692D70E002C06FEF6D
:101530007FEFC5010E94F00D4C01F32DF0683F2EA6
:10154000820133FC1BC0822D90E088169906B0F40E
:10155000B60180E290E00E94060E2A94F4CFF501D5
:1015600037FC859137FE81915F01B60190E00E94C2
:10157000060E21102A9421E0821A91088114910408
:1015800071F7E8C0843611F0893641F5F80137FE6D
:1015900007C060817181828193810C5F1F4F08C0F9
:1015A00060817181072E000C880B990B0E5F1F4F15
:1015B000F32DFF763F2E97FF09C09095809570958B
:1015C00061957F4F8F4F9F4FF0683F2E2AE030E0AC
:1015D000A3010E94420E882E861845C0853731F43B
:1015E000232D2F7EB22E2AE030E025C0932D997F47
:1015F000B92E8F36C1F018F4883579F0B5C0803730
:1016000019F0883721F0B0C0E92FE061BE2EB4FE9A
:101610000DC0FB2DF460BF2E09C034FE0AC0292F77
:101620002660B22E06C028E030E005C020E130E0A0
:1016300002C020E132E0F801B7FE07C0608171818D
:10164000828193810C5F1F4F06C06081718180E0B1
:1016500090E00E5F1F4FA3010E94420E882E861855
:10166000FB2DFF773F2E36FE0DC0232D2E7FA22EA1
:10167000891458F434FE0BC032FC09C0832D8E7ED1
:10168000A82E05C0B82CA32C03C0B82C01C0B92CBF
:10169000A4FE0FC0FE01E80DF11D8081803321F40E
:1016A0009A2D997EA92E09C0A2FE06C0B394B394C8
:1016B00004C08A2D867809F0B394A3FC11C0A0FE63
:1016C00006C0B21488F4280C922C9B180EC0B214D9
:1016D00060F4B60180E290E00E94060EB394F7CF6A
:1016E000B21418F42B1802C0982C212CA4FE10C0A0
:1016F000B60180E390E00E94060EA2FE17C0A1FC96
:1017000003C088E790E002C088E590E0B6010CC015
:101710008A2D867859F0A1FE02C08BE201C080E2DA
:10172000A7FC8DE2B60190E00E94060E891438F401
:10173000B60180E390E00E94060E9A94F7CF8A9457
:10174000F301E80DF11D8081B60190E00E94060EC4
:101750008110F5CF222009F442CEB60180E290E05C
:101760000E94060E2A94F6CFF6018681978102C068
:101770008FEF9FEF2B96E2E10C94BC0EA9E0B0E056
:10178000E4ECFBE00C94A60E6A01122FB02E2BE3C2
:10179000201720F0FF24F394F00E02C02CE3F22E69
:1017A0000F2D27E0AE014F5F5F4F0E94180DBC0167
:1017B0004981842F8970813031F0E1FC06C0E0FE60
:1017C00006C090E205C09DE203C09BE201C090E02C
:1017D0005E2D507143FF3CC0911102C083E001C0F7
:1017E00084E0811718F4212F281B01C020E051113B
:1017F0000BC0F601822F30E2882319F0319381501B
:10180000FBCFC20ED11C20E0992329F0D6019C9376
:10181000F60131966F01C6010396E2FE0AC03EE46E
:10182000D6013C9341E411964C93119712963C9348
:1018300006C03EE6F601308341E641833283FC0177
:10184000322F40E2332309F442C041933150FACFA2
:1018500042FF44C0911102C083E001C084E08117BF
:1018600018F4212F281B01C020E051110BC0F601F4
:10187000822F30E2882319F031938150FBCFC20EC2
:10188000D11C20E0992329F0D6019C93F6013196D2
:101890006F01C6010396E2FE0BC039E4D6013C930A
:1018A0003EE411963C93119736E412963C9307C0A0
:1018B00039E6F60130833EE6318336E63283FC01B9
:1018C000322F40E2332319F041933150FBCFFC011A
:1018D000E20FF11D10828EEF9FEFA6C021E030E0F5
:1018E000911102C020E030E0161617061CF4FB012F
:1018F000319602C0E1E0F0E02E0F3F1FBB2021F047
:10190000EB2DF0E0319602C0E0E0F0E02E0F3F1F3B
:10191000E12FF0E02E173F071CF4121B212F01C00E
:1019200020E08E2D887159F4F601822F30E2882351
:1019300019F031938150FBCFC20ED11C20E09923C6
:1019400029F0D6019C93F60131966F0151110BC01D
:10195000F601822F90E3882319F091938150FBCFF9
:10196000C20ED11C20E00F2D060F9A81342F30714A
:1019700044FF03C0913309F40150101624F40930D8
:1019800018F008E001C001E0AB0177FF02C040E0C1
:1019900050E0FB01E41BF50BA1E0B0E0AC0FBD1F74
:1019A000EA0FFB1F8EE2A82E4B01801A91080B2D27
:1019B00010E01195019511094F3FBFEF5B0721F42E
:1019C000D601AC9211966D01641775072CF0841640
:1019D000950614F4818101C080E34150510931968C
:1019E000D60111967D014017510724F0D6018C9342
:1019F0006701E2CF6417750739F4963320F4953305
:101A000019F4311101C081E3F6018083F701822FBF
:101A100090E2882319F091938150FBCFF701E20FF8
:101A2000F11D108280E090E02996ECE00C94C20E4B
:101A3000283008F027E03327DA01990F311D87FDA0
:101A4000916000966105710539F432602E5F3D9317
:101A500030E32A95E1F708959F3F30F08038710513
:101A6000610509F03C5F3C5F3D93913008F0806870
:101A7000911DDF93CF931F930F93FF92EF92192F36
:101A8000987F9695E92F96959695E90FFF27EE5347
:101A9000FF4F99273327EE24FF24A701E701059084
:101AA0000894079428F4360FE71EF81E491F511DAD
:101AB000660F771F881F991F0694A1F7059007945A
:101AC00028F4E70EF81E491F561FC11D770F881F07
:101AD000991F661F0694A1F70590079428F4F80E45
:101AE000491F561FC71FD11D880F991F661F771FDB
:101AF0000694A1F70590079420F4490F561FC71FBD
:101B0000D81F990F661F771F881F0694A9F7849125
:101B10001095177041F0D695C79557954795F7944E
:101B2000E7941A95C1F7E8E6F0E0689415901591EE
:101B300035916591959105907FE27395E118F10AD1
:101B4000430B560BC90BD009C0F7E10CF11E431F24
:101B5000561FC91FD01D7EF4703311F48A95E6CF4D
:101B6000E894015030F0080F0AF40027021708F437
:101B7000202F2395022F7A3328F079E37D932A953D
:101B8000E9F710C07D932A9589F606949795679595
:101B9000379517951794E118F10A430B560BC90BAB
:101BA000D00998F023957E9173957A3308F070E30D
:101BB0007C932013B8F77E9170617D9330F083950C
:101BC00071E37D9370E32A95E1F71124EF90FF9084
:101BD0000F911F91CF91DF91992787FD90950895DF
:101BE000FC010590615070400110D8F780959095E8
:101BF0008E0F9F1F0895FC016150704001900110ED
:101C0000D8F7809590958E0F9F1F08950F931F937F
:101C1000CF93DF93FB01238121FD03C08FEF9FEF63
:101C20002CC022FF16C0468157812481358142177E
:101C3000530744F4A081B1819D012F5F3F4F318351
:101C400020838C93268137812F5F3F4F37832683F4
:101C500014C08B01EC01FB010084F185E02D099596
:101C6000892BE1F6D80116968D919C9117970196D4
:101C700017969C938E931697CE01DF91CF911F916B
:101C80000F910895FA01AA27283051F1203181F1EE
:101C9000E8946F936E7F6E5F7F4F8F4F9F4FAF4F74
:101CA000B1E03ED0B4E03CD0670F781F891F9A1F87
:101CB000A11D680F791F8A1F911DA11D6A0F711D3B
:101CC000811D911DA11D20D009F468943F912AE047
:101CD000269F11243019305D3193DEF6CF0108952F
:101CE000462F4770405D4193B3E00FD0C9F7F6CF60
:101CF000462F4F70405D4A3318F0495D31FD405228
:101D0000419302D0A9F7EACFB4E0A69597958795BD
:101D100077956795BA95C9F700976105710508959C
:101D20009B01AC010A2E0694579547953795279548
:101D3000BA95C9F7620F731F841F951FA01D0895E0
:101D40002F923F924F925F926F927F928F929F92CB
:101D5000AF92BF92CF92DF92EF92FF920F931F93B9
:101D6000CF93DF93CDB7DEB7CA1BDB0B0FB6F8946A
:101D7000DEBF0FBECDBF09942A88398848885F84AA
:101D80006E847D848C849B84AA84B984C884DF801B
:101D9000EE80FD800C811B81AA81B981CE0FD11DFF
:101DA0000FB6F894DEBF0FBECDBFED010895F894D5
:021DB000FFCF63
:101DB2007E1111117E7F494949363E414141227FC0
:101DC2004141221C7F494949417F090909013E419C
:101DD20049497A7F0808087F00417F41002040413D
:101DE2003F017F081422417F404040407F020C02A5
:101DF2007F7F0408107F3E4141413E7F0909090669
:101E02003E4151215E7F091929464649494931011E
:101E1200017F01013F4040403F1F2040201F3F40C3
:101E220038403F631408146307087008076151497A
:101E3200454320545454787F4844443838444444F9
:101E420020384444487F3854545418087E0901020B
:101E52000C5252523E7F0804047800447D40002018
:101E620040443D007F1028440000417F40007C0434
:101E72001804787C0804047838444444387C1414E8
:101E82001408081414187C7C080404084854545498
:101E920020043F4440203C4040207C1C2040201C29
:101EA2003C4030403C44281028440C5050503C44A4
:101EB20064544C44060909060054656D703A257352
:101EC200207E4300507265733A257320685061008A
:00000001FF
